01                      Szymon                      Kępiński                         1 3 3                        Poland
02000001000000000100PLN                                                                                                 
02000002000000000080DOL                                                                                                 
02000003000000000250PLN                                                                                                 
02000004000000000270PLN                                                                                                 
02000005000000000270PLN                                                                                                 
03000005000000000970                                                                                                    
